:020000040800F2
:1000000070080020810100084D1B00084B1B0008F0
:1000100000000000000000000000000000000000E0
:10002000000000000000000000000000511B00085C
:1000300000000000000000004F1B0008531B0008D8
:1000400093010008000000009301000893010008DC
:10005000930100089301000893010008750200084D
:1000600000000000650200089301000893010008E9
:1000700093010008930100089301000800000000AC
:100080009301000800000000000000009301000838
:1000900000000000930100086D1B00089301000898
:1000A0000000000093010008000000009301000818
:1000B00093010008000000000000000000000000A4
:1000C00000F002F800F04CF812A030C808382418EC
:1000D0002D18AC4201D100F043F80FCCA246AB463C
:1000E0000CA730CF2D1B083F3F197C427F1E544484
:1000F0002D090426F441641EAC4201D300F030F80F
:100100000126334200D0FB1A3343984754465D46DC
:10011000DFE70000BC210000DC210000103A02D320
:1001200078C878C1FAD8520701D330C830C101D598
:1001300004680C6070470000704700000023002432
:1001400000250026103A01D378C1FBD8520700D30E
:1001500030C100D50B6070471FB51FBD10B510BD75
:1001600000F04DF81146FFF7F7FF01F01BFE00F01D
:1001700065F803B4FFF7F2FF03BC00F06BF8000072
:100180000748804707480047FEE7FEE7FEE7FEE72F
:10019000FEE7FEE704480549054A064B70470000A4
:1001A0005D1B0008C10000087002002070080020DC
:1001B000700400207004002001E004C0091F04291D
:1001C000FBD28B0701D50280801CC90700D00270CA
:1001D000704700290BD0C30702D00270401C491E93
:1001E000022904D3830702D50280801C891EE3E71D
:1001F0000022EEE70022DFE7704770477047754640
:1002000000F024F8AE46050069465346C008C00019
:10021000854618B020B5FFF7BDFF60BCB646002686
:100220000027C0C5C0C5C0C5C0C5C0C5C0C5C0C504
:10023000C0C5403D490849008D46704710B5044689
:10024000C046C0462046FFF794FF10BD00487047E7
:100250001000002001491820ABBEFEE72600020076
:100260007047000080B5024800F012F880BDC0461B
:10027000C800002010B50124200200F0FFF8600241
:1002800000F0FCF8A00200F0F9F810BD72B6FEE72D
:10029000F0B585B0016C1C240C4004231946A14024
:1002A000344A121F15680A4603952A4056425641A1
:1002B000049005682A6817461F4078427841304309
:1002C00032D0029501210226104630404742474174
:1002D000A640039B1E420D46019400D03946049F60
:1002E0003C462434002931D0082002405642564171
:1002F0000198C340180700D53546002D24D1029A35
:1003000010680E218843106001200146019A914037
:10031000184B1A680A431A60F86300212170607054
:10032000796B00290ED10FE02868800602D4286876
:10033000984328600F4A106808431060049F396B87
:10034000002901D03846884705B0F0BD029A1068F0
:10035000800605D410680A2188431060012060706F
:10036000002020700349086830430860F96A0029BA
:10037000E8D1E9E704000240F0B587B000284AD090
:1003800004460146243102200691487027683868E7
:10039000344901403960344E30468030A0643348DF
:1003A00038181425294601F077FE80008119206451
:1003B00005916164FC2038400838294601F06CFE44
:1003C0001C22024001210B469340E364A068049084
:1003D000E5682646103645CE0196E6690296266AFD
:1003E000039628431043019A10430E46029908438E
:1003F0000399084339680143049A11433960B103F2
:100400001B488A420AD1002205990A606260036093
:10041000154613461BE0012007B0F0BD6168CFB25E
:10042000059A17600360491E0022032915461346EA
:100430000DD8791E8A0082180023D36703250D404A
:100440003346AB400B490B607C32BC300546002084
:10045000E06322656565A365069908704E7007B074
:10046000F0BDC0460F80FFFF00080240F8FFFDBF4F
:10047000840802404409024070470000B0B50446B9
:10048000074D2868204203D02C60204600F00AF86F
:100490006868204203D06C602046FFF7EDFFB0BDD6
:1004A0000C18024070470000F0B58AB00B68002BB2
:1004B00000D1B9E05D4A904201D0062200E0052259
:1004C0000092024620320192002709970897079769
:1004D0000690049112E02A43554842607F1C0B6845
:1004E0001846F840079A08320792099A921C099216
:1004F000089A121D0892002800D195E00124059465
:10050000BC4023400393E9D04D68102028431228B3
:1005100013D11C20089908400F2631468140FA0863
:1005200092000292019DAB588B43049A11693140AD
:100530008140194302982950556803232A461A40DE
:10054000099882400293834006990E689E431643A1
:1005500006990E60069ED843122D049916D8059A66
:10056000AA40354B1A420FD0B2680240CB68014610
:1005700009988340084604991343B3602A09BA4096
:100580007368A34313437360032DA7D0F26802403E
:100590008B68099883401343F360EA009ED53A467E
:1005A0000298824322488018046E05221207964260
:1005B0000CD0224A964206D0214A9642009E039DC4
:1005C00006D1022604E0039D059E01E00026039D5E
:1005D0001822079B1A400F2393409C43603096409B
:1005E00026430660134C23684868C20306D52B4394
:1005F00023606368820306D4AB4305E0AB4323600A
:1006000063688203F8D52B436360094A1368C2020A
:1006100001D52B4300E0AB43054A136052688002CA
:1006200000D558E7AA4357E70AB0F0BD00140050C0
:100630000018024080180240060006000004005026
:1006400000080050002A02D018228150704728224A
:1006500081507047054800687047C0461A480078C6
:1006600002490A68101808607047C0466C020020F2
:1006700080B5032000F008F8002801D0012080BDDB
:1006800000F024F8002080BD70B50F4E31780124B1
:10069000002916D005467D20C00001F0FDFC014672
:1006A000E348006801F0F8FC00F0E6FB032D08D8F1
:1006B000002806D10024E0432946224600F030F805
:1006C0007560204670BDC0460000002080B582B035
:1006D0000C48416801221143416041681140019179
:1006E0000199110702680A430260006808400090FF
:1006F0000098082000F0B8FB102000F0B5FB02B015
:1007000080BDC0463C100240002805D41F2108408F
:1007100001218140014801607047C04600E100E0CE
:10072000002805D40322034693430A4A9A1803E09B
:100730000C220240064BD2188007C00E8901C9B2B4
:100740008140FF238340106898430843106070473E
:1007500014ED00E000E400E0F0B585B00446007858
:100760004006464E01D4002035E0012001073746FF
:10077000203F3A6803910A40029207D13968039AF0
:1007800011433960396811400491049903210191A2
:100790000A023168114010D0A26991420DD031682F
:1007A0000004326802433260326882433260084695
:1007B000334A10403060C8074ED130683049084095
:1007C000A1690143316000200299002903D13968F1
:1007D000039A914339602168CA0709D18A0711D465
:1007E0008A061AD44A0723D409062CD405B0F0BDD2
:1007F0003246083A13680325AB43A5681D431560CC
:100800008A07EDD5032212033346083B1D68954342
:10081000E2682A431A608A06E4D503229207334627
:10082000083B1D68954362692A431A604A07DBD575
:10083000032292033346083B1D68954322692A43ED
:100840001A600906D2D55C3E3168E02291436268A5
:100850000A43326005B0F0BDFFF7FCFE0546306884
:100860008007AAD4FFF7F6FE401B6D498842F6D9EF
:10087000019802990029AAD0ADE7C0465C10024059
:10088000FFFCFFFFF0B583B00D46014601200029B3
:100890005DD0029101906148006807273840854289
:1008A00015D95E490868B84328430860F64CFFF73D
:1008B000D1FE0646594800683840A84207D0FFF7E5
:1008C000C9FE801BA042F5D9032003B0F0BD029BF6
:1008D00018688107534C10D5410707D57B210902C1
:1008E00022688A430B210902511821600F21090255
:1008F00022688A43D96811432160C0071AD147484A
:1009000000683840854224D244490868B8432843E7
:100910000860DD4CFFF79EFE064640480068384000
:10092000A84216D0FFF796FE801BA042F5D90320FF
:1009300003B0F0BD5968002934D0032901982DD0A7
:10094000012936D12246083A1268920334D403B002
:10095000F0BD029B18784007324A05D5380311686C
:10096000814318690843106010688006400F06D064
:10097000116838200140082909D12B483CE0104675
:10098000083800688004410FBC48C84034E0116852
:100990000140202928D10120C0032DE0A26D92073B
:1009A000D5D509E020460838006840050198CED525
:1009B00002E0626D9207CAD52068B8430843206000
:1009C000FFF748FE0646206838210140029840683B
:1009D000C000814293D0FFF73DFE801BAA498842A8
:1009E000F1D9032003B0F0BD11680140182901D0EE
:1009F000002001E07D200002116889093C220A40A4
:100A00000A4989581F220A40D0409D4908609D48E4
:100A10000068FFF739FE03B0F0BDC0460020024079
:100A2000881300000810024000127A00902200088B
:100A300008000020F0B581B004460120002C00D150
:100A400018E100902078C0078B4E07D0B06838229C
:100A500002406168082A3BD1002972D020788007C3
:100A600013D42078000709D5B06838220240A16964
:100A7000182A69D10029009800D1FBE020780025D0
:100A8000400736D4284601B0F0BDE268B068800661
:100A9000400F38D0306801218F02002A74D007221D
:100AA000D202904322690243326008023168014356
:100AB0003160FFF7CFFD05463068384200D08BE04B
:100AC000FFF7C8FD401B0228F6D9032001B0F0BD96
:100AD000306801235F041A04914207D005252D04D4
:100AE000A94262D1990408433060306810433060F5
:100AF00063E0B06838220240A168202A37D148421A
:100B0000484101B0F0BD002A1BD07F20000271686F
:100B1000814360690002084370600720C0023168A9
:100B2000814320690843306030688004400F534996
:100B3000C1405348016053480068FFF7A5FD0028F5
:100B40008FD0009801B0F0BD306E00294DD001214A
:100B500008433066FFF77EFD0546306E80078DD472
:100B6000FFF778FD411B03200229F6D982E0F06DE2
:100B7000012905D0052949D104210843F065F06D0C
:100B800001210143F1654AE0090288433060FFF723
:100B900061FD05463068384200D162E7FFF75AFD33
:100BA000411B03200229F5D964E09043306098048A
:100BB000326882433260002940D0FFF74BFD054682
:100BC0003068384200D049E7FFF744FD401B6428F5
:100BD000F6D9032001B0F0BD7F2000027168814387
:100BE00060690002084370603BE70121884330667A
:100BF000FFF730FD0546306E800700D43EE7FFF773
:100C000029FD411B03200229F5D933E0012290433D
:100C1000F065F06D04229043F06500291CD01A4F56
:100C2000FFF718FD0446F06D800700D52AE7FFF7AF
:100C300011FD011B0320B942F5D91BE0FFF70AFDA6
:100C400005463068384200D108E7FFF703FD411B35
:100C500003206429F5D90DE00B4FFFF7FBFC044698
:100C6000F06D800700D40DE7FFF7F4FC011B0320B3
:100C7000B942F5D901B0F0BD00100240006CDC02B1
:100C8000080000200400002088130000F0B585B0A3
:100C900000280AD005465C3541218E00416A0029B2
:100CA00006D000210161142106E0012005B0F0BD4D
:100CB0004168B14202D01C210022425000278762C5
:100CC0006978002905D100212970044600F05AF8FE
:100CD0002046022104950191697001680A68402349
:100CE0009A4303910A60C268254B01259A422B461C
:100CF00000D33B461B03ED0215430F273902029137
:100D00008D4201D0002585624568876835402124E1
:100D1000A4023C406419056901990D4025434169CD
:100D2000012421402943FC3687693E400E43C169B6
:100D300038250D403543016A80260E402E4361035D
:100D4000856A0D403543039E3560390C04250D40FE
:100D500002990A4013432B43416A10220A401A4366
:100D6000416B08230B4013437360E102F2698A432D
:100D7000F26100210166084604994C7005B0F0BD8F
:100D800001070000F0B58FB0044600260E960D96C0
:100D90000C960B960A96099608960796069605965F
:100DA000049600682B49884201D00FB0F0BD0420A2
:100DB000039003A8FFF7D0FC002801D0FFF766FAE4
:100DC00001210B0301932448C2681A43C260C26820
:100DD0001A400292029A02680A43026002680A40BC
:100DE0000292029901680227394301600068384085
:100DF000029002980E960D960C960B97C0200A90C2
:100E0000052000070AAD2946FFF74EFB0A200E9089
:100E10000D960C960B9740200A9010482946FFF734
:100E200043FB0F4D01982862802010210D4A2A6053
:100E30006960AE60EE6028616E61AE61EE61284669
:100E4000FFF79AFA002801D0FFF720FAAC62A565F7
:100E50000FB0F0BD003001403410024000040050DB
:100E6000C80000200800024002490A6802430A60E4
:100E70007047C04600000140401E010E01D0012015
:100E800070470749074A5060074803680B40032131
:100E90008907591801600020906007211160704790
:100EA000FFFFFF0010E000E020ED00E0704770471A
:100EB00070470000F0B53C22825C012A01D102207B
:100EC000F0BD02463C323F231B02CC689C430F23FB
:100ED0009B028D689D4325434B681D4C1C402C4351
:100EE0000B681C4D1D4025430B691B4C1C402C43BB
:100EF0004B692343194C1C400B6B194D1D40254376
:100F0000CB692B438C692404164D25401D4303688F
:100F10009148834204D02C46002010705C64F0BDE0
:100F2000114805400E46203651CEC96A36050F4F8E
:100F300037402F4311256D06A843384301256D071F
:100F4000AC4304430C43002010705C64F0BDC04609
:100F5000FF87F0EFFF8FF0EFFF9FF0EFFFBFF0EFA5
:100F6000FFFFF0EF0000FFEFFFFF0FDC0000F0DC01
:100F700070B53C22825C012A01D1022070BD02467C
:100F80003C3202235370006845688368724CA0426B
:100F900001D02E4604E00F263605B5434E682E4399
:100FA0007025AE430D6835434560A04202D06B4CBE
:100FB000A04204D18024A3438968194381600020A2
:100FC00010700121517070BDB0B5002824D00546C5
:100FD0003C356978002905D100212970044600F0CC
:100FE00057F820460221697001680B685A4A9142FD
:100FF00002D05A4CA14211D17024A34384681C43EF
:10100000224B99420EDD914212D03F4B99420FD0B4
:101010003C4B99420CD037E00120B0BD1C461B4B25
:101020009942F0DC4D4B994202D0384B99422BD17A
:1010300003231B029C4303692343C468CC624468B6
:101040008C628469914205D02F4A914202D02D4A88
:10105000914201D1406908630868042202430A6092
:10106000012048618022934323430B602873A870BA
:10107000E87028716871A871E87128726872A872A6
:10108000E87268700020B0BD2346D6E7FF2B014010
:1010900010B582B000681A49884208DC1B498842B2
:1010A0001FD02D4988421AD10120C0021EE01549E7
:1010B000884219D01449884211D101218804144A68
:1010C00013680343136012680240019201981624CA
:1010D00000222046FFF724FB2046FFF715FB02B055
:1010E00010BD0120C00301E00120400408490A6846
:1010F00002430A60096801400191019802B010BDE5
:10110000FF430140004401400048014000200040EE
:10111000401002403D21415C01291AD101463D3178
:1011200002220A7001680C48814202D00B488142B9
:1011300009D188680A4A02400020062A08D0012303
:101140001B049A4204D00868012202430A6000206E
:10115000704701207047C046002C01400004004049
:101160000700010001680A6A144B1A4207D10A6A93
:10117000134B1A4203D10A6801239A430A603D21A6
:10118000012242540020704710B50268D368012143
:101190008B43D360136A094C234203D03D22815410
:1011A000002010BD136A064C2342F7D113688B430D
:1011B00013603D228154002010BDC0461111000073
:1011C00044040000F0B53C22825C012A01D10220D7
:1011D000F0BD02463C32022353700468A0684E4BB7
:1011E0000340A3600D6800234F2D1EDC1F2D37DD4B
:1011F000202D39D0302D37D0402D00D087E0206A07
:10120000256A0126B5432562A569F026B543CE6857
:1012100036012E43A6610A25A8434968014321628D
:10122000A0683E49014047316BE06F2D28DD012069
:101230004603B54256D00003854218461CD0702D97
:1012400065D1FF200002A568854348688E68C9689B
:101250000643080230432843A060A06877214FE08E
:10126000002D01D0102D52D1A0682C4901400D4312
:1012700007202843A0601846137001215170F0BD6B
:10128000502D19D0602D42D1206A256A1026B54311
:1012900025620F252D03A669AE43CD682D03354386
:1012A000A561A025A8434968090101432162A068FE
:1012B0001A490140673124E0206A256A0126B543B6
:1012C0002562A569F026B543CE6836012E43A66196
:1012D0000A25A843496801432162A0680F490140DB
:1012E00057310EE0FF252D02A668AE434D688F688A
:1012F000C9682F43090239433143A1608003A168C3
:101300000143A1601846137001215170F0BD012006
:10131000137001215170F0BD8800CEFF88FFCFFF10
:1013200070470000F0B583B004460068C568022726
:10133000294639404A424A410169029139404B42AB
:101340004B41134313D16C49FE31016101212177D7
:101350008069800703D02046FFF7E2FF05E02046C2
:1013600000F0F6F8204600F012FB0020207701265E
:101370000422294611404842484102994907314612
:1013800000D50146032000020190002916D10092E9
:1013900020685949FC310161277780690199084229
:1013A00003D02046FFF7BCFF05E0204600F0D0F850
:1013B000204600F0ECFA00202077009A0827294602
:1013C00039404842484102990907314600D5014653
:1013D000002913D120684849F83101612277C0699A
:1013E000800703D02046FFF79BFF05E0204600F072
:1013F000AFF8204600F0CBFA0020207710212940DA
:10140000484248410299C906314600D501460029A3
:1014100014D120683849F03101612777C0690199FA
:10142000084203D02046FFF77BFF05E0204600F08E
:101430008FF8204600F0ABFA0020207701212940E8
:10144000484248410299C907314600D00146002967
:1014500006D120682849FF310161204600F05AFB7F
:1014600080272F40784278414121C901029A0A42DF
:10147000314600D00146002905D120681F4901618D
:101480002046FFF714FD784278410299C90531469C
:1014900000D50146002905D1206817490161204681
:1014A000FFF704FD4021294048424841029949067E
:1014B000314600D50146002906D120680E49C031C9
:1014C0000161204600F040FB202005406842684151
:1014D0000299890603D4002E04D003B0F0BD06465D
:1014E000002EFAD120680449E03101612046FFF75F
:1014F000DFFC03B0F0BDC046FFFEFFFF7FDFFFFF54
:1015000080B586B00021059104910391029101916B
:101510000068E34A904201D006B080BD0B480268E3
:1015200001231A430260006818400090049103915F
:1015300002200290072001900520059000070099E5
:1015400001A9FEF7B1FF06B080BDC04634100240CD
:1015500070470000F0B582B03C23C35C012B02D180
:10156000022002B0F0BD03463C330224E241052ACA
:1015700000D9ABE07A441279520097440274405784
:10158000248A0268106A156A0126B5431562A043D1
:101590008E68064350680C6801949569F64FBA420C
:1015A00006D0F74CA24203D0F64CA24200D014E180
:1015B0000C24A643CC680427BC43EF4F3443BA4203
:1015C00000D00DE112E10268146AB7487330156A61
:1015D0000540156257688D6801950D680095566D38
:1015E000E54DAA4206D0E64DAA4203D0E54DAA42F7
:1015F00000D0A4E00740486905023D43A0E002682E
:10160000106A01242502166AAE4316626402A043E2
:101610008C682702074350680C680194D569D64C42
:10162000A24258D03E46A24261D166E00268156AE5
:1016300001242003166A8643166250688E6801965C
:101640000E680096D769CC4EB24206D0CC4EB2425C
:1016500003D0CC4EB24200D0A4E0A603B0434E6902
:10166000B60106439FE00268106A146A1025AC4375
:1016700014622024A0438C682701074350680C683B
:1016800001949469F54DAA4240D03E46AA4247D102
:101690004CE00268156A01242005166A864316622A
:1016A00050688E6801960E680096576DEB4EB242F8
:1016B00006D0E74EB24203D0E64EB24200D0CAE0B6
:1016C000A604B0434E69B6020643C5E001200021DE
:1016D000197002B0F0BD0326B602B743744CFF3C4C
:1016E000CE6836022640DD4C3E43A24205D0D84C9F
:1016F000A24202D0D74CA2423ED103242403A043ED
:101700004C698F6927433C01044336E0C026B74348
:10171000CE6836014025AE43FA4D3E43AA4205D07D
:10172000F94DAA4202D0F94DAA4267D10325AD0274
:10173000A8434D698F692F43BD0005435FE03D46D7
:10174000104654305560584DED1C2E40009D2E43E0
:1017500056654D68956501256D04AC43019D2D04CA
:1017600025431562546D082525435565546D0425A0
:10177000AC43546509698AE0044610461C30546045
:10178000494C2540019C2543D5614C68D4631662C1
:10179000D46908252543D561D4690425AC43D461B7
:1017A000096974E0064610461C3056603F4E3740CB
:1017B000009E36023E43D6614E6816646603B5430A
:1017C000019E36032E431662E502D6692E43D6618A
:1017D000A402D569A543D56157E03446BA4205D085
:1017E000D74EB24202D0C94EB2421ED103263602B3
:1017F000B0434E698F6906433E4317E005461046E5
:1018000018305560294D2C40019D2D0225439561CE
:101810004C68946316620124E50296692E43966132
:10182000A4029569A54395612FE00646104618303D
:1018300056601D4E3540019E354395614D68556398
:101840001462946908252543956194690425AC4385
:10185000946109691BE00646104654305660114EEB
:101860003740009E36023E4356654E68D665660593
:10187000B543019E36052E431662E502566D2E4392
:101880005665A402556DA5435565096909020268AC
:101890000A43026000200021197002B0F0BDC0466A
:1018A000002C0140FF8FFFFE8CFFFEFFFF8CFFFE30
:1018B000FFFBFFFFB0B5002824D005463C35697812
:1018C000002905D100212970044600F05FF8204668
:1018D0000221697001680B688A4A914202D05E4C0D
:1018E000A14211D17024A34384681C43234B994225
:1018F0000EDD914212D0924B99420FD0834B994208
:101900000CD037E00120B0BD1C461C4B9942F0DCE6
:10191000514B994202D01C4B99422BD103231B02FD
:101920009C4303692343C468CC6244688C62846925
:10193000914205D0824A914202D0744A914201D12B
:10194000406908630868042202430A600120486174
:101950008022934323430B602873A870E87028719A
:101960006871A871E87128726872A872E87268706C
:101970000020B0BD2346D6E7002C0140FF2B0140DC
:10198000004801400044014000200040704770477B
:10199000B0B502463E32002909D00C1F0223DC41BB
:1019A000042C0AD34325455D012D0BD014E0137898
:1019B000012B11D10223137017E025463F35455DF9
:1019C000012D09D1032C0FD87C4424796400A7444D
:1019D00001090507537008E00120B0BDD37004E091
:1019E000137102E0937000E053711F221140012235
:1019F00013468B400168086A98430862086A1843D6
:101A000008621248814206DC1348814210D03D48EA
:101A1000814206D015E04A48814202D03B488142CB
:101A20000FD1D0034B6C03434B643648814208D13D
:101A300088680B4B03400020062B06D01404A342F9
:101A400003D00868104308600020B0BDFF43014088
:101A5000004801400044014000040040002C0140C7
:101A60000700010070B51F230B40012214469C4063
:101A700003681D6AA5431D621C6A1C62204C214D2F
:101A8000AB4205D02E4DAB4202D0204DAB4206D129
:101A90001D6A254203D11D6A1D4E35420AD01D6ABA
:101AA00025420ED11C6A1A4D2C420AD11C6894435F
:101AB0001C6006E0D5035E6CAE435E641D6A254281
:101AC000F0D03E300223D941042915D87944097950
:101AD00049008F44020E080B05000270002070BD03
:101AE0000271002070BD8270002070BDC2700020A5
:101AF00070BD4270002070BD4271002070BDC046B4
:101B000011110000002C0140004801400044014038
:101B10004404000080B500680949884200D080BDB7
:101B20001548FFF731FB90480178491C054A4A43A4
:101B3000120C06235343C91A017000F01FF880BD30
:101B400000480140AB2A00007047FEE7FEE77047FF
:101B5000704780B5FEF782FD80BD00000120C00601
:101B6000014908607047C04608ED00E080B50248B2
:101B7000FFF7D8FB80BDC04620020020F0B581B041
:101B800079480078052800D9CBE0C0467844007930
:101B900040008744027A35541FA005200507082716
:101BA0000024284639462246FEF74CFD10212846DF
:101BB0002246FEF747FD6D4E04213046FFF752FFE7
:101BC00030463946FFF74EFF0127384600F0D0F87F
:101BD00020219CE0052005070824002728462146EF
:101BE0003A46FEF72FFD202128463A46FEF72AFD09
:101BF0005E4E30463946FFF735FF042130467FE020
:101C0000052004071021002620463246FEF71AFD63
:101C1000202120463246FEF715FD544D2846314618
:101C2000FFF720FF082628463146FFF71BFF012754
:101C3000384600F09DF8204631463A4643E00520FC
:101C400004071021002620463246FEF7FBFC202127
:101C500020463246FEF7F6FC444D28463146FFF753
:101C600001FF04212846FFF7FDFE0126304600F063
:101C70007FF80827204639463246FEF7E3FC28461F
:101C80003946FFF785FE01B0F0BD0520040708279F
:101C90000026204639463246FEF7D4FC1021204665
:101CA0003246FEF7CFFC314D28463946FFF7DAFEC3
:101CB00028463146FFF7D6FE0126304600F058F898
:101CC000202120463246FEF7BDFC04212846FFF7BE
:101CD0005FFE01B0F0BD0520050708270024284657
:101CE00039462246FEF7AEFC202128462246FEF762
:101CF000A9FC1E4E04213046FFF7B4FE304639469B
:101D0000FFF7B0FE0127384600F032F810212846D0
:101D10003A46FEF797FC30462146FFF739FE01B000
:101D2000F0BD0520060708240025304621462A4636
:101D3000FEF788FC102130462A46FEF783FC20215E
:101D400030462A46FEF77EFC084E30462946FFF70D
:101D500089FE04213046FFF785FE30462146FFF715
:101D600081FE01B0F0BDC046700000207C00002064
:101D7000B0B50446C24D2868002141622846FFF7ED
:101D8000C9F92868416AA14208D2416AA14205D234
:101D9000416AA14202D2416AA142F3D3B848FFF797
:101DA000E1F9B0BDA0B0FEF763FC00240B940A94E7
:101DB0000994089407940694059416941594149421
:101DC00013941294A54801680122114306239943F4
:101DD000016040200A90100208900227059705A88C
:101DE000FEF728FE002801D072B6FEE713940726FE
:101DF000129614941594169412A801252946FEF7FC
:101E000041FD002801D072B6FEE7099408940794BA
:101E100006940594924A1068384310601068384060
:101E2000129012981068042108431060106808404E
:101E30001290129810682843106010682840129081
:101E4000129805200296000704903821019122463D
:101E5000FEF7F8FB079406948020059081482E46F3
:101E6000039505AD2946FEF71FFB089407940696D7
:101E70000198059004982946FEF716FB07947A48C6
:101E80000690029E30020190059004982946FEF7C4
:101E90000BFB304621462246FEF742FC3046FEF759
:101EA00033FC6F494868039A104348604868104003
:101EB000059005980925284639462246FEF730FC4C
:101EC0002846FEF721FC1F941E941D941894179425
:101ED0001694159414941394129405A83421FEF7C3
:101EE00089F9624D624E63486860AC60EC602E61B7
:101EF0006C61AC61EC612F1D3846FFF765F8002876
:101F000001D072B6FEE7039800031C901CA9384666
:101F1000FFF758F9002801D072B6FEE73846FFF700
:101F2000C9FC002801D072B6FEE71B941A941994DC
:101F300019A93846FFF71CF8002801D072B6FEE751
:101F40001394602012901494159416941794189476
:101F500012A938462246FFF7FDFA002801D072B6D2
:101F6000FEE712A904223846FFF7F4FA002801D050
:101F700072B6FEE712A908223846FFF7EBFA0028EE
:101F800001D072B6FEE7099408940794069405946C
:101F9000119410940F940D940C940B94039948068B
:101FA0000E9048030A9005A93846FEF783FF0028E3
:101FB00001D072B6FEE73846FFF7A2FA2E48046257
:101FC000446284620299C1620463446303994902D2
:101FD0002A4A14C00460019A42608460C4600161AE
:101FE0000838FEF753FE002801D072B6FEE72448F9
:101FF00084612F27234982C00460466084600838CA
:10200000FEF7E2FF002801D072B6FEE71E481F4926
:1020100082C0046046608460C46004610838FEF7D2
:10202000D3FF002801D072B6FEE71948194982C0D3
:10203000046046608460C46004610838FEF7C4FF31
:10204000002801D072B6FEE70398C00369684A6CA5
:1020500002434A640C48FFF75DF8FEE700200240A7
:1020600034100240000400500000311078000020BD
:10207000FFFF0000002C014024010020003001403F
:102080008801002000200040D401002000440140CD
:10209000200200200048014043088B421AD300224E
:1020A00003098B4279D3030A8B425ED3030B8B4225
:1020B00042D3030C8B4227D30902FF2212BA030C2E
:1020C0008B4202D31212090203D0030B8B4233D38B
:1020D0001AE0D3E0411A8041401C704703460B438D
:1020E00071D443088B42F5D3002203098B4254D3A9
:1020F000030A8B4239D3030B8B421DD3030C8B4253
:1021000002D394466EE0090AC30B8B4201D3CB0382
:10211000C01A5241830B8B4201D38B03C01A524128
:10212000430B8B4201D34B03C01A5241030B8B422A
:1021300001D30B03C01A5241C30A8B4201D3CB0215
:10214000C01A5241830A8B4201D38B02C01A5241FA
:10215000430A8B4201D34B02C01A5241030A8B42FD
:1021600001D30B02C01A5241CDD2C3098B4201D315
:10217000CB01C01A524183098B4201D38B01C01A93
:10218000524143098B4201D34B01C01A524103090A
:102190008B4201D30B01C01A5241C3088B4201D3B9
:1021A000CB00C01A524183088B4201D38B00C01A66
:1021B000524143088B4201D34B00C01A5241411A8D
:1021C000524110007047CA0F00D04942031000D39B
:1021D0004042534000229C4603098B422DD3030A00
:1021E0008B4212D38901FC2212BA030A8B420CD310
:1021F000890192118B4208D3890192118B4204D339
:10220000890137D0921100E08909C3098B4201D3BB
:10221000CB01C01A524183098B4201D38B01C01AF2
:10222000524143098B4201D34B01C01A5241030969
:102230008B4201D30B01C01A5241C3088B4201D318
:10224000CB00C01A524183088B4201D38B00C01AC5
:102250005241D9D243088B4201D34B00C01A52419C
:10226000411A00D201465241104663465B1000D32A
:102270004042704763465B1000D3404201B50021E5
:10228000004201D0C9430846C046C04602BD000016
:10229000000000000000000000000000000000003E
:1022A000000000000000000000000000000000002E
:1022B0000100000002000000030000000400000014
:1022C00006000000070000000800000009000000F0
:1022D000F022000800000020100000001C0100088F
:1022E0000023000810000020600800003C010008E6
:1022F0000100000004000000001BB7000000000007
:04000005080000C12E
:00000001FF
